{"abi":[{"type":"function","name":"checkSignaturePolicy","inputs":[{"name":"id","type":"bytes32","internalType":"bytes32"},{"name":"","type":"address","internalType":"address"},{"name":"","type":"bytes32","internalType":"bytes32"},{"name":"","type":"bytes","internalType":"bytes"}],"outputs":[{"name":"","type":"uint256","internalType":"uint256"}],"stateMutability":"view"},{"type":"function","name":"checkUserOpPolicy","inputs":[{"name":"id","type":"bytes32","internalType":"bytes32"},{"name":"userOp","type":"tuple","internalType":"struct PackedUserOperation","components":[{"name":"sender","type":"address","internalType":"address"},{"name":"nonce","type":"uint256","internalType":"uint256"},{"name":"initCode","type":"bytes","internalType":"bytes"},{"name":"callData","type":"bytes","internalType":"bytes"},{"name":"accountGasLimits","type":"bytes32","internalType":"bytes32"},{"name":"preVerificationGas","type":"uint256","internalType":"uint256"},{"name":"gasFees","type":"bytes32","internalType":"bytes32"},{"name":"paymasterAndData","type":"bytes","internalType":"bytes"},{"name":"signature","type":"bytes","internalType":"bytes"}]}],"outputs":[{"name":"","type":"uint256","internalType":"uint256"}],"stateMutability":"payable"},{"type":"function","name":"dailyUsed","inputs":[{"name":"","type":"bytes32","internalType":"bytes32"},{"name":"","type":"address","internalType":"address"},{"name":"","type":"bytes32","internalType":"bytes32"},{"name":"","type":"uint256","internalType":"uint256"}],"outputs":[{"name":"","type":"uint256","internalType":"uint256"}],"stateMutability":"view"},{"type":"function","name":"getPermission","inputs":[{"name":"id","type":"bytes32","internalType":"bytes32"},{"name":"permissionHash","type":"bytes32","internalType":"bytes32"},{"name":"owner","type":"address","internalType":"address"}],"outputs":[{"name":"valueLimit","type":"uint256","internalType":"uint256"},{"name":"dailyLimit","type":"uint256","internalType":"uint256"},{"name":"rules","type":"tuple[]","internalType":"struct ParamRule[]","components":[{"name":"condition","type":"uint8","internalType":"enum ParamCondition"},{"name":"offset","type":"uint64","internalType":"uint64"},{"name":"params","type":"bytes32[]","internalType":"bytes32[]"}]}],"stateMutability":"view"},{"type":"function","name":"getPermissionByIndex","inputs":[{"name":"id","type":"bytes32","internalType":"bytes32"},{"name":"owner","type":"address","internalType":"address"},{"name":"index","type":"uint256","internalType":"uint256"}],"outputs":[{"name":"permissionHash","type":"bytes32","internalType":"bytes32"},{"name":"valueLimit","type":"uint256","internalType":"uint256"},{"name":"dailyLimit","type":"uint256","internalType":"uint256"},{"name":"rules","type":"tuple[]","internalType":"struct ParamRule[]","components":[{"name":"condition","type":"uint8","internalType":"enum ParamCondition"},{"name":"offset","type":"uint64","internalType":"uint64"},{"name":"params","type":"bytes32[]","internalType":"bytes32[]"}]}],"stateMutability":"view"},{"type":"function","name":"getPermissionsCount","inputs":[{"name":"id","type":"bytes32","internalType":"bytes32"},{"name":"owner","type":"address","internalType":"address"}],"outputs":[{"name":"","type":"uint256","internalType":"uint256"}],"stateMutability":"view"},{"type":"function","name":"isInitialized","inputs":[{"name":"wallet","type":"address","internalType":"address"}],"outputs":[{"name":"","type":"bool","internalType":"bool"}],"stateMutability":"view"},{"type":"function","name":"isModuleType","inputs":[{"name":"id","type":"uint256","internalType":"uint256"}],"outputs":[{"name":"","type":"bool","internalType":"bool"}],"stateMutability":"pure"},{"type":"function","name":"onInstall","inputs":[{"name":"data","type":"bytes","internalType":"bytes"}],"outputs":[],"stateMutability":"payable"},{"type":"function","name":"onUninstall","inputs":[{"name":"data","type":"bytes","internalType":"bytes"}],"outputs":[],"stateMutability":"payable"},{"type":"function","name":"status","inputs":[{"name":"","type":"bytes32","internalType":"bytes32"},{"name":"","type":"address","internalType":"address"}],"outputs":[{"name":"","type":"uint8","internalType":"enum Status"}],"stateMutability":"view"},{"type":"function","name":"updatePermissionLimits","inputs":[{"name":"id","type":"bytes32","internalType":"bytes32"},{"name":"wallet","type":"address","internalType":"address"},{"name":"callType","type":"bytes1","internalType":"CallType"},{"name":"target","type":"address","internalType":"address"},{"name":"selector","type":"bytes4","internalType":"bytes4"},{"name":"newValueLimit","type":"uint256","internalType":"uint256"},{"name":"newDailyLimit","type":"uint256","internalType":"uint256"}],"outputs":[],"stateMutability":"nonpayable"},{"type":"function","name":"usedIds","inputs":[{"name":"","type":"address","internalType":"address"}],"outputs":[{"name":"","type":"uint256","internalType":"uint256"}],"stateMutability":"view"},{"type":"event","name":"PermissionInstalled","inputs":[{"name":"id","type":"bytes32","indexed":true,"internalType":"bytes32"},{"name":"owner","type":"address","indexed":true,"internalType":"address"},{"name":"permissionHash","type":"bytes32","indexed":true,"internalType":"bytes32"},{"name":"valueLimit","type":"uint256","indexed":false,"internalType":"uint256"},{"name":"dailyLimit","type":"uint256","indexed":false,"internalType":"uint256"}],"anonymous":false},{"type":"event","name":"PermissionRemoved","inputs":[{"name":"id","type":"bytes32","indexed":true,"internalType":"bytes32"},{"name":"owner","type":"address","indexed":true,"internalType":"address"},{"name":"permissionHash","type":"bytes32","indexed":true,"internalType":"bytes32"}],"anonymous":false},{"type":"event","name":"PermissionUpdated","inputs":[{"name":"id","type":"bytes32","indexed":true,"internalType":"bytes32"},{"name":"owner","type":"address","indexed":true,"internalType":"address"},{"name":"permissionHash","type":"bytes32","indexed":true,"internalType":"bytes32"},{"name":"newValueLimit","type":"uint256","indexed":false,"internalType":"uint256"},{"name":"newDailyLimit","type":"uint256","indexed":false,"internalType":"uint256"}],"anonymous":false},{"type":"error","name":"AlreadyInitialized","inputs":[{"name":"smartAccount","type":"address","internalType":"address"}]},{"type":"error","name":"CallViolatesDailyLimit","inputs":[]},{"type":"error","name":"CallViolatesParamRule","inputs":[]},{"type":"error","name":"CallViolatesValueRule","inputs":[]},{"type":"error","name":"InvalidCallData","inputs":[]},{"type":"error","name":"InvalidCallType","inputs":[]},{"type":"error","name":"NotInitialized","inputs":[{"name":"smartAccount","type":"address","internalType":"address"}]},{"type":"error","name":"NotPermissionOwner","inputs":[]}],"bytecode":{"object":"0x60808060405234610016576121f0908161001b8239f35b5f80fdfe6080806040526004361015610012575f80fd5b5f3560e01c908163244d6cb214610e7b57508063309bfb7614610e0a5780636b941ccf14610dc65780636d61fe7014610a045780637129edce1461082f5780638a91b0e3146104db578063c2bc92e81461044a578063c5b1f2d71461033e578063d60b347f14610305578063d8ed2b3c146102a1578063ebc2a17d14610245578063ecd05961146102255763fe34de61146100ab575f80fd5b346102215760e0366003190112610221576004356100c7610ec4565b90604435906001600160f81b031982168203610221576001600160a01b03606435818116810361022157608435916001600160e01b0319831683036102215760a4359461012761013560c4359560405192839160209788840196876111e1565b03601f1981018352826110af565b51902095845f52600283528160405f2091165f52825260405f20865f52825260405f209060038201549060ff8260a01c16156101e757339116036101ad576001818685935501556040519384528301527fd39d72478950499606702ae010bcd2c9f1e885a1be156585299530d9964a608b60403393a4005b60405162461bcd60e51b81526004810183905260126024820152712737ba2832b936b4b9b9b4b7b727bbb732b960711b6044820152606490fd5b60405162461bcd60e51b815260048101859052601260248201527137379039bab1b4103832b936b4b9b9b4b7b760711b6044820152606490fd5b5f80fd5b346102215760203660031901126102215760206040516005600435148152f35b346102215760803660031901126102215761025e610ec4565b6004355f52600460205260405f209060018060a01b03165f5260205260405f206044355f5260205260405f206064355f52602052602060405f2054604051908152f35b34610221576040366003190112610221576102ba610ec4565b6004355f52600160205260405f209060018060a01b03165f5260205260ff60405f20541660405160038210156102f1576020918152f35b634e487b7160e01b5f52602160045260245ffd5b34610221576020366003190112610221576001600160a01b03610326610eae565b165f525f602052602060405f20541515604051908152f35b346102215760603660031901126102215760043561035a610ec4565b9060443591815f526020926003845260405f209160018060a01b031691825f52845260405f2054811015610419576103a590835f526003855260405f20835f52855260405f206111cc565b90549060031b1c915f526002835260405f20905f52825260405f20815f52825261041560405f206103df60ff600383015460a01c1661105e565b8054906103f3600260018301549201611177565b9160405195869586528501526040840152608060608401526080830190610f07565b0390f35b60405162461bcd60e51b815260048101859052600960248201526834b73232bc1027a7a160b91b6044820152606490fd5b34610221576060366003190112610221576044356001600160a01b03811690819003610221576004355f52600260205260405f20905f5260205260405f206024355f5260205260405f206104a760ff600383015460a01c1661105e565b80546104156104bd600260018501549401611177565b60405193849384526020840152606060408401526060830190610f07565b602080600319360112610221576004356001600160401b03811161022157610507903690600401610eda565b9190828211610221578035805f5260019182845260405f20335f52845260ff9460ff60405f20541690600391828110156102f1578503610221579185610551929382019101611220565b5f845b6105a3575b5050505f80945052815260408220338352815260408220600260ff198254161790555260405f208054801561058f575f19019055005b634e487b7160e01b5f52601160045260245ffd5b815181101561082a57849291906001600160f81b03196105c38284611504565b5151166001600160a01b03886105d98486611504565b5101511661060d6001600160e01b031960406105f58688611504565b51015116916101276040519384928d840196876111e1565b519020855f52600280895260405f20335f52895260405f20825f528952898560405f20015460a01c16610647575b50508301909192610554565b909192939450855f5280885260405f20335f52885260405f20825f5288528460405f20915f83555f898401558083018054905f8155816107ac575b5050509392919087955f910155855f5283885260405f20335f52885260405f20855f905b6106dd575b505090849133877f53777618f0438d1931c2ce7f0faa2daaf0bbd6470f78159d8063900bb78a4b945f80a4908961063b565b81929394959691548082101561079f57846106f883866111cc565b9054908a1b1c1461071257508101819695949392916106a6565b9391505f9695949296199384810190811161058f5761074461073761075a928a6111cc565b905490891b1c92896111cc565b819391549060031b91821b915f19901b19161790565b9055855492831561078b578896818895019161077683836111cc565b90918254918a1b1b191690555590918a6106ab565b634e487b7160e01b5f52603160045260245ffd5b50819695949392506106ab565b919250906001600160ff1b038216820361058f579187925f949294528a5f20938a1b84015b8085106107e057829450610682565b91938193505f81558a81018054905f815581610804575b50500192909187926107d1565b5f528b8d5f20918201915b82811061081c57506107f7565b5f81558694508d910161080f565b610559565b600319604036820112610221576004356024356001600160401b03811161022157610120816004019382360301126102215760640161086e8184610ff6565b60041161022157631651a3ad60e01b90356001600160e01b03191601610221576108988184610ff6565b6024929192116102215760046108b092013593610ff6565b506024810135016024810160048201359260ff60f81b80861680155f1461092357505083601411610221578360341161022157610901946038840135946033190193605801923560601c9133611dca565b15610911575b60206040515f8152f35b60405163016754b960e61b8152600490fd5b91959394929391600160f81b81036109b457505050503501602460448201910135915f5b8381106109575750505050610907565b610962818585611028565b356001600160a01b0381168103610221576109a79061098f610985848888611028565b6040810190610ff6565b90602061099d868a8a611028565b0135928633611982565b1561091157600101610947565b929592036109f25784601411610221576109dc946013190193603801923560601c913361156e565b6109075760405163016754b960e61b8152600490fd5b6040516339d2eb5560e01b8152600490fd5b6020366003190112610221576004356001600160401b03811161022157610a2f903690600401610eda565b806020116102215781355f52600160205260405f20335f5260205260ff60405f20541660038110156102f15761022157610a6e90820160208301611220565b5f5b8151811015610d8b576001600160f81b0319610a8c8284611504565b5151166001600160a01b036020610aa38486611504565b51015116610ad86001600160e01b03196040610abf8688611504565b51015116916101276040519384926020840196876111e1565b5190209083355f526002928360205260405f20335f5260205260405f20835f5260205260ff600360405f20015460a01c16610d5a5784355f528360205260405f20335f5260205260405f20835f5260205260405f20926060610b3a8484611504565b51015184556080610b4b8484611504565b51015160018501556003840180546001600160a01b031916331790555f5b60a0610b758585611504565b51015151811015610cc157610b988160a0610b908787611504565b510151611504565b5186860154600160401b811015610c9a57806001610bbd920189890155888801611518565b919091610cae5780519060078210156102f15760409160ff845491168060ff19831617855568ffffffffffffffff00602084015160081b169168ffffffffffffffffff1916171783550151908151916001600160401b038311610c9a57600160401b8311610c9a576001820154836001840155808410610c70575b5060206001910191015f5260205f205f5b838110610c5c5750505050600101610b69565b600190602084519401938184015501610c49565b600183015f5260205f20908482015b8183018110610c8f575050610c38565b5f8155600101610c7f565b634e487b7160e01b5f52604160045260245ffd5b634e487b7160e01b5f525f60045260245ffd5b50909350600160a01b60ff60a01b1960038501541617600384015584355f52600360205260405f20335f5260205260405f2092835493600160401b851015610c9a57610d18610744868593600180990181556111cc565b9055838154910154604051918252602082015233907fdfa35a84a835c492bb8a42cc8cdbbb2e80b91edcc00f0bef097e03a0709033756040883592a401610a70565b60405162461bcd60e51b81526020600482015260096024820152686475706c696361746560b81b6044820152606490fd5b82355f52600160205260405f20335f5260205260405f20600160ff198254161790555f60205260405f2080545f19811461058f576001019055005b3461022157604036600319011261022157610ddf610ec4565b6004355f52600360205260405f209060018060a01b03165f52602052602060405f2054604051908152f35b3461022157608036600319011261022157610e23610ec4565b506064356001600160401b03811161022157610e43903690600401610eda565b50506004355f52600160205260405f20335f5260205260ff60405f20541660038110156102f1576001036102215760206040515f8152f35b34610221576020366003190112610221576020906001600160a01b03610e9f610eae565b165f525f825260405f20548152f35b600435906001600160a01b038216820361022157565b602435906001600160a01b038216820361022157565b9181601f84011215610221578235916001600160401b038311610221576020838186019501011161022157565b908082519081815260208091019281808460051b8301019501935f915b848310610f345750505050505090565b909192939495601f1982820301835286519060608082019183519060078210156102f15780899594938693608093526001600160401b03848701511684830152604080960151958201528451809452019201905f905b808210610fa95750505090806001929801930193019194939290610f24565b9193806001929486518152019401920187939291610f8a565b90939293848311610221578411610221578101920390565b359060208110610fe8575090565b5f199060200360031b1b1690565b903590601e198136030182121561022157018035906001600160401b0382116102215760200191813603831361022157565b919081101561104a5760051b81013590605e1981360301821215610221570190565b634e487b7160e01b5f52603260045260245ffd5b1561106557565b60405162461bcd60e51b81526020600482015260076024820152666e6f207065726d60c81b6044820152606490fd5b606081019081106001600160401b03821117610c9a57604052565b90601f801991011681019081106001600160401b03821117610c9a57604052565b6001600160401b038111610c9a5760051b60200190565b90604051916110f583611094565b8281549160ff831660078110156102f15782939193526001600160401b0360209160081c16602083015260018093016040519182948593602084549182815201935f5260205f20925f905b82821061115f5750505050506040929161115b9103846110af565b0152565b84548652889650948501949383019390830190611140565b908154611183816110d0565b9261119160405194856110af565b8184525f90815260208082208186015b8484106111af575050505050565b6002836001926111be856110e7565b8152019201930192906111a1565b805482101561104a575f5260205f2001905f90565b6001600160f81b0319909116815260609190911b6bffffffffffffffffffffffff191660018201526001600160e01b0319909116601582015260190190565b906020828203126102215781356001600160401b0381116102215781601f828501011215610221578083013590611256826110d0565b9361126460405195866110af565b82855260208501918460208560051b83850101011161022157602081830101925b60208560051b8385010101841061129f5750505050505090565b83356001600160401b038111610221578284010160c09081601f19828a03011261022157604051918083018381106001600160401b03821117610c9a5760405260208201356001600160f81b03198116810361022157835260408201356001600160a01b038116810361022157602084015260608201356001600160e01b0319811681036102215760408401526080820135606084015260a08201356080840152810135906001600160401b0382116102215788603f838301011215610221576020828201013561136f816110d0565b9261137d60405194856110af565b81845260208401908b60408460051b83870101011161022157604081979e9d9c9b9a999897850101915b60408460051b838701010183106113de575050505050602092939495969798998284939260a0859401528152019401939050611285565b6001600160401b038335116102215760608583018435018d03603f1901126102215760405161140c81611094565b604084358488010101356007811015610221578152606084358488010101356001600160401b0381168103610221576020820152608084358488010101356001600160401b038111610221578d605f828735878b010101011215610221578684018535018101604001358e611480826110d0565b9261148e60405194856110af565b828452602084019160608460051b838d8b8d3591010101010111610221576060818935898d01010101915b60608460051b838d8b8d3591010101010183106114e7575050505060408201528152602092830192016113a7565b82358152602092830192016114b9565b80511561104a5760200190565b805182101561104a5760209160051b010190565b805482101561104a575f5260205f209060011b01905f90565b9190820180921161058f57565b906001600160401b0380921660040191821161058f57565b9060206001600160401b038093160191821161058f57565b959493919290935f9381155f14611968575f915b60409485516020958161159a878983019388856111e1565b03916115ae601f19938481018352826110af565b51902098805f5260029460028852885f209c60018060a01b03169c8d5f528852885f208b5f528852885f209260039760ff600386015460a01c16156118dd575b5050506001998a8301549081611866575b50505088999a5087995b61161b575b5050505050505050905090565b83810180548b1015611860576116348b61163a92611518565b506110e7565b61167c6116768883016001600160401b038061166c6116678261165f8187511661153e565b95511661153e565b611556565b1691168787610fc2565b90610fda565b8151600790818110156117e557158061184a575b6117f9578251818110156117e5578c1480611834575b6117f9578251818110156117e55787148061181e575b6117f9578251818110156117e557881480611809575b6117f9578251818110156117e5576004809114806117d0575b611797578351828110156117bd57600514806117a8575b611797578351918210156117845750600614611725575b505088809a0199611609565b899189018b83815b61174f575b5050505015611742575f80611719565b5050505050505091505090565b8251805182101561177e578161176491611504565b518414611774575b81018161172d565b909350839061176c565b50611732565b634e487b7160e01b8c526021905260248bfd5b505050505050505050505091505090565b506117b58b8501516114f7565b518314611702565b634e487b7160e01b8d526021825260248dfd5b506117dd8b8501516114f7565b5183116116eb565b634e487b7160e01b8c52602160045260248cfd5b5050505050505050505091505090565b506118168a8401516114f7565b5182106116d2565b5061182b8a8401516114f7565b518210156116bc565b506118418a8401516114f7565b518211156116a6565b506118578a8401516114f7565b51821415611690565b5061160e565b90919950620151804204908a5f52600489528d8a5f20905f528952895f20815f528952895f20825f528952895f20549283116118cc578b9c9d5f9b5f5260048a528a5f20905f528952895f20905f528852885f20905f528752875f20558a995f806115ff565b89516313df82ef60e11b8152600490fd5b8a516001600160f81b03199093168a84019081525f60018201526001600160e01b031990911660158201529293506119219082601985015b039081018352826110af565b519020815f5260028752875f208c5f528752875f20905f528652865f209060ff600383015460a01c1615611957575f80806115ee565b8751631c49f4d160e01b8152600490fd5b816004116102215783356001600160e01b03191691611582565b94959493919082611db1575f5b604094855194602095868101935f85526021966bffffffffffffffffffffffff199060601b168783015263ffffffff60e01b1694856035830152601982528882016001600160401b039583821087831117610c9a57818b528351902090825f5260029760028b528b5f209c60018060a01b03169c8d5f528b528b5f20835f528b528b5f209460ff600387015460a01c1615611d40575b50505082548d11611d2f5760019a8b84015480611ca7575b5050505088999a505f979697985b611a5c575b50505050505050505090565b84819b999b9a989a019a8b54811015611c9b57611aab611676611a896116348e9f9d9e9b9c9d8590611518565b9d8e018780611aa16116678261165f8187511661153e565b1691168688610fc2565b9b80519c60079d8e811015611c20571580611c85575b611c335781518e811015611c20578c1480611c6f575b611c335781518e811015611c2057881480611c59575b611c335781518e811015611c205760031480611c44575b611c335781518e811015611c2057600480911480611c0b575b611bd25782518f811015611bf95760051480611be4575b611bd25782519e8f1015611bc0575060068c9d9e14611b5b575b5050890198979697611a4b565b919a5f92918b019083815b611b8b575b5050505015611b7d5789985f80611b4e565b505050505050505050505f90565b82518051821015611bba5781611ba091611504565b518414611bb0575b810181611b66565b9093508390611ba8565b50611b6b565b8990634e487b7160e01b5f525260245ffd5b505f9d50505050505050505050505050565b50611bf18c8401516114f7565b518214611b34565b8a82634e487b7160e01b5f525260245ffd5b50611c188c8401516114f7565b518211611b1d565b89634e487b7160e01b5f5260045260245ffd5b505f9c505050505050505050505050565b50611c518b8301516114f7565b518110611b04565b50611c668b8301516114f7565b51811015611aed565b50611c7c8b8301516114f7565b51811115611ad7565b50611c928b8301516114f7565b51811415611ac1565b50889a50879950611a50565b908e8b9392611ce08e62015180420496885f5260048152815f20865f528152815f20875f528152815f2090885f52525f20549283611531565b11611d1e578d9e9f611cf191611531565b935f5260048b528b5f20905f528a528a5f20905f528952895f20905f528852885f20558a995f8080611a3d565b8c516313df82ef60e11b8152600490fd5b8951631ed604b560e21b8152600490fd5b60809192955060608101925f84525f6061830152607582015260198652019380851088861117610c9a57848c52519020825f5260028a528a5f208c5f528a528a5f20905f528952895f209260ff600385015460a01c1615611da2578080611a25565b631c49f4d160e01b8152600490fd5b826004116102215783356001600160e01b03191661198f565b9596959490939190806121a0575f925b60409586519060209682611df3888a83019389856111e1565b0392611e07601f19948581018352826110af565b51902098815f5260029560028952895f209160018060a01b031691825f528952895f208b5f528952895f209360039860ff600387015460a01c161561211d575b50505082548c1161210c576001998a8401549182612088575b505050508799505f995b611e7b575b50959750505050505050565b83810180548b1015612082576116348b611e9492611518565b99611eba611676888d016001600160401b038061166c6116678261165f8187511661153e565b9a80519b60079c8d8110156102f157158061206c575b61201b5781518d8110156102f1578b1480612056575b61201b5781518d8110156102f157871480612040575b61201b5781518d8110156102f15788148061202b575b61201b5781518d8110156102f157600480911480612006575b611c335782518e811015611ff35760051480611fde575b611c335782519d8e1015611fcb575060068b9c9d14611f67575b505088019998611e6a565b91995f92918a019083815b611f96575b5050505015611f895788975f80611f5c565b5050505050505050505f90565b82518051821015611fc55781611fab91611504565b518414611fbb575b810181611f72565b9093508390611fb3565b50611f77565b602190634e487b7160e01b5f525260245ffd5b50611feb8b8401516114f7565b518214611f42565b602182634e487b7160e01b5f525260245ffd5b506120138b8401516114f7565b518211611f2b565b505f9b5050505050505050505050565b506120388a8301516114f7565b518110611f12565b5061204d8a8301516114f7565b51811015611efc565b506120638a8301516114f7565b51811115611ee6565b506120798a8301516114f7565b51811415611ed0565b50611e6f565b8d62015180420493855f5260048c528c5f20835f528c528c5f20845f528c528c5f20855f528c526120bd8d5f20549283611531565b116120fb578c9d9e6120ce91611531565b935f5260048a528a5f20905f528952895f20905f528852885f20905f528752875f205589985f8080611e60565b8b516313df82ef60e11b8152600490fd5b8851631ed604b560e21b8152600490fd5b8b516001600160f81b03199093168b84019081525f60018201526001600160e01b03199091166015820152929450612159908260198501611915565b519020815f5260028852885f20835f528852885f20905f528752875f209160ff600384015460a01c161561218f575f8080611e47565b8851631c49f4d160e01b8152600490fd5b806004116102215782356001600160e01b03191692611dda56fea2646970667358221220b42d8a1f3d003c7d8a765abf449c3b30f59793f798a172b443b2e53145669b9064736f6c63430008170033","linkReferences":{}},"methodIdentifiers":{"checkSignaturePolicy(bytes32,address,bytes32,bytes)":"309bfb76","checkUserOpPolicy(bytes32,(address,uint256,bytes,bytes,bytes32,uint256,bytes32,bytes,bytes))":"7129edce","dailyUsed(bytes32,address,bytes32,uint256)":"ebc2a17d","getPermission(bytes32,bytes32,address)":"c2bc92e8","getPermissionByIndex(bytes32,address,uint256)":"c5b1f2d7","getPermissionsCount(bytes32,address)":"6b941ccf","isInitialized(address)":"d60b347f","isModuleType(uint256)":"ecd05961","onInstall(bytes)":"6d61fe70","onUninstall(bytes)":"8a91b0e3","status(bytes32,address)":"d8ed2b3c","updatePermissionLimits(bytes32,address,bytes1,address,bytes4,uint256,uint256)":"fe34de61","usedIds(address)":"244d6cb2"},"id":28}